:100000000C945D000C9485000C9485000C94850084
:100010000C9485000C9485000C9485000C9485004C
:100020000C9485000C9485000C9485000C9485003C
:100030000C9485000C9485000C9485000C9485002C
:100040000C94FD020C9485000C9485000C948500A2
:100050000C9485000C9485000C9485000C9485000C
:100060000C9485000C9485000000000024002700FB
:100070002A0000000000250028002B0004040404CE
:100080000404040402020202020203030303030342
:10009000010204081020408001020408102001021F
:1000A00004081020000000080002010000030407FB
:1000B0000000000000000000230411241FBECFEF49
:1000C000D8E0DEBFCDBF11E0A0E0B1E0E6EDF8E0A2
:1000D00002C005900D92A833B107D9F721E0A8E33B
:1000E000B1E001C01D92A935B207E1F710E0CDE5FE
:1000F000D0E004C02197FE010E946304CC35D107F3
:10010000C9F70E9447030C9469040C94000090E026
:10011000FC01EC55FF4F2491FC01E057FF4F349157
:10012000FC01E458FF4FE491EE23C9F0222339F09B
:10013000233001F1A8F4213019F1223029F1F0E047
:10014000EE0FFF1FEE58FF4FA591B4918FB7F894B3
:10015000EC91611126C030953E233C938FBF0895EA
:100160002730A9F02830C9F0243049F78091800069
:100170008F7D03C0809180008F7780938000DFCFD8
:1001800084B58F7784BDDBCF84B58F7DFBCF809125
:10019000B0008F778093B000D2CF8091B0008F7D78
:1001A000F9CF3E2BDACFCF93DF9390E0FC01E057FD
:1001B000FF4F249184589F4FFC0184918823D1F0F4
:1001C00090E0880F991FFC01E859FF4FA591B49169
:1001D000FC01EE58FF4FC591D49161110EC09FB73D
:1001E000F8948C91E22FE0958E238C932881E22362
:1001F000E8839FBFDF91CF9108958FB7F894EC917A
:10020000E22BEC938FBFF6CF3FB7F89480913D017E
:1002100090913E01A0913F01B091400126B5A89B6D
:1002200005C02F3F19F00196A11DB11D3FBFBA2F88
:10023000A92F982F8827BC01CD01620F711D811D48
:10024000911D42E0660F771F881F991F4A95D1F7CD
:100250000895AF92BF92CF92DF92EF92FF920F93E9
:100260001F93CF93DF936C017B018B01040F151F4C
:10027000EB015E01AE18BF08C017D10759F06991B4
:10028000D601ED91FC910190F081E02DC601099518
:10029000892B79F7C501DF91CF911F910F91FF90C5
:1002A000EF90DF90CF90BF90AF900895089590E0C9
:1002B00080E008958F929F92AF92BF920F931F9309
:1002C000CF93DF93CDB7DEB7A1970FB6F894DEBF1B
:1002D0000FBECDBF19A2423008F44AE08E010F5D77
:1002E0001F4F842E912CB12CA12CA50194010E94AA
:1002F0004104E62FB901CA01EA3044F5E05DD801B6
:10030000EE938D01232B242B252B79F790E080E0B1
:10031000109769F0FD0101900020E9F73197AF01D6
:100320004A1B5B0BBD0181E491E00E942901A1966B
:100330000FB6F894DEBF0FBECDBFDF91CF911F91F6
:100340000F91BF90AF909F908F900895E95CD7CFA9
:10035000FC0101900020E9F73197AF01481B590BD0
:10036000BC0181E491E00C942901CF93DF93EC016F
:1003700060E08E810E94870061E08E810E9487008C
:1003800060E08E810E9487008BE891E00197F1F791
:10039000DF91CF910895CF92DF92EF92FF920F936A
:1003A0001F93CF93DF936C017C0187E0E80EF11C73
:1003B000D0E0C0E0062F10E0B8010C2E02C0759509
:1003C00067950A94E2F76170F70181917F010E94BD
:1003D00087002196C430D10579F7C601DF91CF910E
:1003E0001F910F91FF90EF90DF90CF900C94B5018B
:1003F000CF92DF92EF92FF920F931F93CF93DF93F1
:10040000EC01F62E642F8C810E9487008D818F3F36
:1004100019F060E00E9487000F2D10E08F8584FFA7
:1004200025C06E0187E0C80ED11CF12CE12CB8016B
:100430000E2C02C0759567950A94E2F76170F6017B
:1004400081916F010E948700FFEFEF1AFF0A88E099
:10045000E816F10461F7CE01DF91CF911F910F9162
:10046000FF90EF90DF90CF900C94B501B80184E03D
:10047000759567958A95E1F7CE010E94CB016F2DA6
:10048000CE01DF91CF911F910F91FF90EF90DF9000
:10049000CF900C94CB0140E0682F81E491E00C9464
:1004A000F801CF93DF93823029F490915001986046
:1004B00090935001809354011092550180E48093F1
:1004C000560180E18093570180E58093580161E0F7
:1004D000809145010E94D300809146018F3F19F021
:1004E00061E00E94D30061E0809147010E94D30047
:1004F000C1E4D1E09E01215431408091500184FD3E
:100500000BC084E090E021962817390744F461E09D
:100510008E810E94D300EECF88E090E0F4CF8BE391
:100520009DE00197F1F760E0809145010E9487000E
:1005300060E0809147010E948700809146018F3FD3
:1005400019F060E00E9487008091500184FD39C05D
:1005500063E081E491E00E94CB01CBE4D6E4CE01DC
:100560000197F1F763E081E491E00E94CB012197CC
:10057000F1F763E081E491E00E94CB0183E592E032
:100580000197F1F762E081E491E00E94CB01809154
:10059000500180620E944B0284E0809351018CE004
:1005A0000E944B0281E00E944B028BE39FE1019786
:1005B000F1F782E08093520186E0DF91CF910C94B5
:1005C0004B0280620E944B028BE496E40197F1F7A4
:1005D0008091500180620E944B0283E592E0019776
:1005E000F1F78091500180620E944B02D0CF41E030
:1005F0000E94F80181E090E008951F920F920FB6DB
:100600000F9211242F933F938F939F93AF93BF9398
:100610008091390190913A01A0913B01B0913C0148
:100620003091380123E0230F2D3758F50196A11D95
:10063000B11D209338018093390190933A01A09322
:100640003B01B0933C0180913D0190913E01A0910E
:100650003F01B09140010196A11DB11D80933D0164
:1006600090933E01A0933F01B0934001BF91AF91A1
:100670009F918F913F912F910F900FBE0F901F90E0
:10068000189526E8230F0296A11DB11DD2CF7894AC
:1006900084B5826084BD84B5816084BD85B5826087
:1006A00085BD85B5816085BD80916E008160809338
:1006B0006E001092810080918100826080938100A1
:1006C00080918100816080938100809180008160B1
:1006D000809380008091B10084608093B10080910C
:1006E000B00081608093B00080917A008460809334
:1006F0007A0080917A00826080937A0080917A00FB
:10070000816080937A0080917A00806880937A007B
:100710001092C10060E08EE00E94D30082E00E944F
:10072000510290E4D92ECBE3DFE100E010E0D0925B
:100730007C0080917A00806480937A0080917A00B6
:1007400086FDFCCF80917800E0907900FE2CE82EA9
:100750008CE091E00E94A80147010F2C000CAA0830
:10076000BB084AE0C501B401F7FE0EC041E06DE2EE
:1007700081E491E00E94F80166277727CB01681990
:1007800079098A099B094AE00E945A0182E191E0B5
:100790000E94A801E09154012BEFE216F1040CF441
:1007A00043C0E23008F03EC0E150F0E0EF5BFE4FA6
:1007B000848980680E944B0287E191E00E94A80131
:1007C0000E9404014B015C0180E9482E552453949A
:1007D000612C712C0E940401681979098A099B090E
:1007E000683E734081059105A8F381E0481A5108DD
:1007F0006108710828EE820E23E0921EA11CB11C34
:10080000411451046104710429F781E00E944B02F4
:10081000CE010197F1F70115110509F488CF0E9467
:10082000000085CFE1E0C1CFE23058F4E150F0E0C4
:10083000EF5BFE4F848980680E944B0287E291E063
:10084000BDCFE1E0F4CFE1E4F1E01382128284E075
:1008500091E0918380838CE084838FEF85838BE0AC
:10086000868385E0878384E0808783E0818782E0D8
:1008700082871386148615861686178681E00C9467
:100880005102A1E21A2EAA1BBB1BFD010DC0AA1F1B
:10089000BB1FEE1FFF1FA217B307E407F50720F0E9
:1008A000A21BB30BE40BF50B661F771F881F991F64
:1008B0001A9469F760957095809590959B01AC01AD
:1008C000BD01CF010895EE0FFF1F0590F491E02DBB
:0608D0000994F894FFCF2B
:1008D60000000000F7022901570156014761733AEB
:1008E60020002070706D00426164204169722051C1
:1008F60075616C69747900476F6F64204169722075
:080906005175616C6974790000
:00000001FF
